:02000002D0002C
:1040000000400D0060870D00000006000C00050157
:084010000401BD0B00000000DB
:04401800287D0D00F2
:10401C0009480A49884208B505D0094A824202D0AB
:10402C00121A03F08FFD0748074A0021121A03F0F9
:10403C0097FD014808BD00BF24E50320CC860D0088
:10404C0090E5032090E50320F0E7032070B5074EC0
:10405C00074C01F061FFA41BA4080025A54200D168
:10406C0070BD56F8043B98470135F7E790860D0074
:10407C00B4860D0000F0F8BD08B500F057FDBDE8A2
:10408C00084001F00BBF01F029BB01F027BB01F088
:10409C002DBB000008B5034A00210C2001F072FA78
:1040AC00FEE700BFE1520D000078B0FA80F0400945
:1040BC007047012303707047704710B510210446F8
:1040CC0002F003FE204610BD37B5044608460191A8
:1040DC0003F084FD6368A268451CE818904208D878
:1040EC00206801992A46184403F02CFD6068284486
:1040FC00606003B030BD000038B584690A4B0360C2
:10410C0005467CB16368013B63605BB9236820465C
:10411C009B689847A368013BA3601BB923682046A2
:10412C00DB689847284638BDDC830D000EB403B518
:10413C0003AB002153F8042B019301F006FE02B0EF
:10414C005DF804EB03B0704773B50446084622795A
:10415C00A36832B1A3B90B4902B0BDE8704001F0BD
:10416C00B9BD094A267B094D0949647B012E18BF4C
:10417C002946CDE900140749FFF7D8FF02B070BDFE
:10418C00054AEFE74D7D0D00A37D0D00497D0D0027
:10419C00457D0D00637D0D003C7D0D000EB403B517
:1041AC0003AB012153F8042B019301F0CEFD02B0B7
:1041BC005DF804EB03B0704708B501F093F8034BBE
:1041CC001860BDE8084001F079BA00BFD4E70320BD
:1041DC0003682BB14268934202D2184603F09CBC90
:1041EC000020704738B50568044645B143689D42C8
:1041FC0005D2284603F0F2FC013005442560204628
:10420C0038BD000038B504460B46D0E901012568DD
:10421C00044A091A284401F079FA6368013003440E
:10422C00636038BD807D0D0038B504460B46D0E97F
:10423C0001012568044A091A284401F067FA6368E9
:10424C0001300344636038BD837D0D0008B5002345
:10425C004377006802F072FABDE8084000F0C4BF72
:10426C002DE9F04301EB02098FB04945CDE9051961
:10427C0080460D46164680F0928005A80F88FFF701
:10428C00B1FF0368994540F28A8005A8FFF7A0FFAB
:10429C0047F276239F42C4B200F0A98027D847F298
:1042AC0061239F427ED047F264239F4242D046F660
:1042BC0070539F4228D1634E634FDFF8A081059B5A
:1042CC0099456CD905A8FFF783FFC4B205A8FFF781
:1042DC0089FF059D3146284603F06EFC0146E0B986
:1042EC00204602F033FC05A8FFF77CFFE7E747F216
:1042FC0064739F423FD047F276739F4200F08780F1
:10430C0047F261739F425FD00023CDE90133022253
:10431C000092B8F81A20194629E03946284603F0CD
:10432C004BFC28B14146284603F046FC0028DAD164
:10433C000121D5E70AAB4549079307A810230025AF
:10434C00CDE90853FFF7C0FE07A82146FFF75AFF37
:10435C00204602F025FC014607A8FFF765FF089BE5
:10436C00CDE90155013B0093079B2A461421404699
:10437C0000F0E0FA13E005A8FFF734FF0368994555
:10438C000DD9A4B20121204602F0E0FB05A8FFF7ED
:10439C001FFF011E18BF0121204602F0E8FB0FB0E1
:1043AC00BDE8F0830AAB079307A810232849002522
:1043BC00CDE90853FFF788FE07A82146FFF722FF37
:1043CC00204602F000FCC6E705A8FFF70BFF0368C8
:1043DC009945E4D9A4B20121204602F0B7FB05A807
:1043EC00FFF7F6FE0146204602F004FCD7E7204614
:1043FC008DF8284000F0FAFE03460AA823B1154AAE
:10440C00934201D09847CAE700F0ECFEC7E705A835
:10441C00FFF7E8FE059B8DF81C405D1B751B2046C5
:10442C00CDE90A350C9500F0EBFE03460AA907A866
:10443C0023B1094A934201D09847B0E700F0D3FE6C
:10444C00ADE700BF877D0D008A7D0D00927D0D00CC
:10445C00957D0D00F1510D00F3510D008E7D0D0079
:10446C002DE9F0418CB004AF044605220068391DDB
:10447C0001F0B1FCB8B3052804D000202037BD46AC
:10448C00BDE8F081B7F80520130A43EA0223B7F818
:10449C000720A7F8053099B2130A43EA02231FFA42
:1044AC0083F8A7F807300029E7D03B7923BB00F04D
:1044BC0097FE0246E060607FB7F80730C0B9B7F8E6
:1044CC000510012914D1092B0FD0C82B01D0042BB6
:1044DC00D4D1012562612046657700F0D9FAFFF747
:1044EC006BFE00F081FE0120C8E703236377C5E76C
:1044FC00581F18BF0120C1E7B8F5806F03D92046BB
:10450C00FFF7A4FEEFE708F1080323F007036E465C
:10451C00ADEB030D04AD20684246294601F05BFC6F
:10452C0080454FF000007FD1B7F80730E85400F019
:10453C0057FE3B79E060142B00F0A68048D80F2B77
:10454C0000F0A28007D8022B48D0062B51D0204671
:10455C00FFF77CFE58E0112BF9D100233B70B7F824
:10456C0007302B449D42C7E903534DD207F10C0091
:10457C00D5F80080FFF736FEFB68B7F807105D1B17
:10458C004D1BC7E905357B68FD61C3F30F236383BE
:10459C00644B984500F0BF8000F28C80A3F57F231C
:1045AC006FF400721344984500F09D8079D8A3F500
:1045BC000033063B984500F09C8003F50033033331
:1045CC0098456BD107F11401384600F00CFE65E0FC
:1045DC00292B1BD0372B17D01D2BB8D1637F43B998
:1045EC0001236377204600F053FAFFF7E5FD00F056
:1045FC00FBFD0023C821B7F805200091CDE901335C
:10460C001946204600F096F901200DE0A3681BB96D
:10461C00402001F063F8A060B7F80780A844454536
:10462C00C7E9055802D30020B54627E729464022A2
:10463C00A06803F0DBFAA368002583F83F5007F16C
:10464C001400FFF7CFFD036843451BD2786920B1F6
:10465C00BB69984214D203F063FA85B2206802F069
:10466C006DF82368A2685A631D870023637700F0F6
:10467C00B7FDA0F59C500838C4E903006061C3E79E
:10468C002846EAE75025E9E77B68B7F80720C3F32B
:10469C000F23638329462046FFF7E2FD0023638343
:1046AC00B2E7214B9845F9D107F11401384600F0D7
:1046BC009AFDF3E71D4B984521D003F19F6303F559
:1046CC00003303F5807398451FD003F16E4303F557
:1046DC00302303F586739845E0D107F11401384671
:1046EC0000F081FDDAE707F11401384600F07BFD9C
:1046FC00D4E707F11401384600F075FDCEE707F159
:10470C001401384600F06FFDC8E707F11401384674
:10471C0000F069FDC2E707F11401384600F063FDB3
:10472C00BCE700BF766673006462670061636F6EFE
:10473C002DE9F04104468CB00D46FFF73DFD637F3B
:10474C00022B00F0A880237F628B0133DBB223772E
:10475C000AB1012516E0022BFBD8206801F00DFEF2
:10476C00B8B125B9206801F08FFF002811DD204673
:10477C00FFF776FE05460028F4D1206801F0DEFF35
:10478C0000F032FD237F013B237728460CB0BDE8B7
:10479C00F08100F025FD0646206801F0EEFD677FF4
:1047AC00012F054629D120B966612046FFF74EFD41
:1047BC00E8E7E3684FF21862F31A934204D92046F3
:1047CC00FFF744FD0025DDE74AF6C872934203D893
:1047DC002369F31A9342BCD9636941F27072F31ADC
:1047EC009342B6D90023CDE9013300931A46062132
:1047FC00204600F09FF86661ABE7002FA9D16269F3
:10480C00B21A40B141F270739A42A2D9206801F0F9
:10481C0095FF6777D6E741F288339A4299D9206899
:10482C0001F08CFFD4F800C0DCF834E0BCF8388020
:10483C00BEF1000F0BD02B4642467146604601F08C
:10484C00DBFF431E5D425D418DB966619AE7134BF8
:10485C0006930CF120070FCF07AD0FC53B682B70EB
:10486C004246734606A9604601F093FEE9E7636889
:10487C00059301261846268303F0B0F90022CDE9F2
:10488C000122059B009032461D21204600F052F873
:10489C002369636176E7002577E700BF0C830D0081
:1048AC002DE9F04115468CB00446043540F6B8307D
:1048BC000F46984600F092FC0FCD01AE0FC62B6848
:1048CC003370676000F08CFCA0F59C50083801AF89
:1048DC00C4E9030060610FCF07AE0FC63B683370AD
:1048EC0007AF0FCF25684FF0000CC5F834C0A5F802
:1048FC00388020350FC533682B70664644F24F67FD
:10490C00206801F01BFF667700F06AFC0546637FA8
:10491C00012B0CD000F064FC401BB84204D80021E1
:10492C002046FFF705FFF2E7637F012BE8D10CB0BF
:10493C00BDE8F0812DE9F04F83B000AF044600686C
:10494C003D6B884616469946EB4601F016FD00284D
:10495C007FD0B8F11D0F04D84C4B23FA08F3DB07BA
:10496C0002D4637F012B74D146B9668B36B9238B85
:10497C0001339BB2002B71D02383268BA8F10C033F
:10498C00082B16D8D4E90323934238BF134603F1FE
:10499C00420A00F025FCAAEB0000002860DB002195
:1049AC002046FFF7C5FE00F01BFCAAEB0000002818
:1049BC00F5DAB9F1000F5AD06B1D7A6B002ABA6B7D
:1049CC0008BF002203EB020A0AF1070323F00703D6
:1049DC00ADEB030DBB6BC7F804D0EA18C2F3072389
:1049EC0076BA43EA02238DF80080ADF80160ADF889
:1049FC000330B9F1000F3CD0002D3AD02A4649467D
:104A0C000DF1050003F09EF8681D7B6B3BB1BB6B91
:104A1C002BB11A467B68796B184403F093F8002588
:104A2C0055452AD2AAEB05027B682068B2F5806F47
:104A3C0028BF4FF48062591901F089FC064600200A
:104A4C0000F0CCFBBEB9206801F078FE667700F070
:104A5C00CBFB0C37DD46BD46BDE8F08F01238BE761
:104A6C00217F0029A5D12046FFF762FEA1E705238F
:104A7C00A3E70520C9E73544D2E703D02046FFF76A
:104A8C00E5FBE6E700F0ACFB2061E2E74500002027
:104A9C0000B595B004AB0022019349230093029218
:104AAC00034B1121FFF746FF15B05DF804FB00BF67
:104ABC00FC7D0D0070B52DED028BB0EE408AF0EE52
:104ACC00608AADF5846D08AB002405460E4605934F
:104ADC0005A84FF480631349CDE90643FFF7F4FAB8
:104AEC00314605A8FFF78EFBDDE9063105980E4A25
:104AFC00C91A8DED008B184400F008FE431C069873
:104B0C0003440693013B0093CDE90144059B2246E7
:104B1C0014212846FFF70EFF0DF5846DBDEC028BBA
:104B2C0070BD00BF987D0D009B7D0D0030B58BB026
:104B3C004448694600F0C0FA00287CD0424C4349F6
:104B4C00434D02A801F013F8BDF9000002F026FB5A
:104B5C00D4E9002302F0D4F941EC100B062106A88D
:104B6C0001F02BF806A902A801F052F806A800F0F3
:104B7C00B3FF384902A801F04FF8BDF9020002F06A
:104B8C000DFBD5E9002302F0BBF941EC100B06211B
:104B9C0006A801F012F806A902A801F039F806A837
:104BAC0000F09AFF2C4902A801F036F8BDF9040078
:104BBC0002F0F4FAD4E9002302F0A2F941EC100B54
:104BCC00062106A800F0F9FF06A902A801F020F8BA
:104BDC0006A800F081FFBDF9000002F0DFFA1F4BC0
:104BEC00D3E9002302F08CF941EC100B1C48002196
:104BFC00FFF760FFBDF9020002F0D0FAD5E90023FF
:104C0C0002F07EF941EC100B15480121FFF752FF21
:104C1C00BDF9040002F0C2FAD4E9002302F070F9E5
:104C2C0041EC100B0E480221FFF744FF02A800F0E4
:104C3C0053FF0BB030BD01F097FA0A4901F05DF853
:104C4C00F7E700BFFCE5032038E60320A37D0D0049
:104C5C0030E60320A17D0D00A27D0D0028E6032087
:104C6C00A0E50320A47D0D002DE9F043002195B0B3
:104C7C00032001F06BFFA2230093AC22EA23A721AF
:104C8C000EA801F0F9F942F282330EAA7549764862
:104C9C00764F774EDFF8DC81FFF702FE0021724879
:104CAC00FFF746FD01F060FA4FF4165101F050FA8F
:104CBC0007A800F0BBF9502107A800F0C4F907A918
:104CCC006C4800F02FFA039001F04EFA039A6A49EF
:104CDC00FFF764FA00253C68AC4240F3A58000F075
:104CEC0001FB3368C01A632840F2968000F0FAFA90
:104CFC0005A93060404600F0DFF9002800F08E80F6
:104D0C005E4C5F49DFF898910AA800F030FFBDF9BE
:104D1C00140002F043FAD4E9002302F0F1F841EC5C
:104D2C00100B06210EA800F048FF0EA90AA800F0EF
:104D3C006FFF0EA800F0D0FE52490AA800F06CFFDD
:104D4C00BDF9160002F02AFAD9E9002302F0D8F8CE
:104D5C0041EC100B06210EA800F02FFF0EA90AA89B
:104D6C0000F056FF0EA800F0B7FE47490AA800F065
:104D7C0053FFBDF9180002F011FAD4E9002302F038
:104D8C00BFF841EC100B06210EA800F016FF0EA97F
:104D9C000AA800F03DFF0EA800F09EFE3B4ABDF9AC
:104DAC001400136803441360394ABDF916301168B6
:104DBC000B441360374ABDF9183011680B4413606B
:104DCC0002F0ECF9344BD3E9002302F099F841ECF2
:104DDC00100B25480021FFF76DFEBDF9160002F0FF
:104DEC00DDF9D9E9002302F08BF841EC100B1E48D9
:104DFC000121FFF75FFEBDF9180002F0CFF9D4E9ED
:104E0C00002302F07DF841EC100B17480221FFF74C
:104E1C0051FE0AA800F060FE01355CE701F0A4F930
:104E2C001E4900F06AFFF7E7184B186890FBF4F086
:104E3C0002F0B4F9184BC3E90001154B186890FB4C
:104E4C00F4F002F0ABF9164BC3E90001114B1868F2
:104E5C0090FBF4F002F0A2F9084BC3E9000115B085
:104E6C00BDE8F083AE7D0D00A0E5032024E5032012
:104E7C0040E60320FCE50320CF7D0D0038E603203F
:104E8C00A37D0D00A17D0D00A27D0D0044E6032045
:104E9C0048E603204CE6032028E60320A47D0D0001
:104EAC0030E6032037B5264D0021012000F08AFBA7
:104EBC002846002401F08CFC05F11C0001F098F848
:104ECC006C632C871F4A2049284601F0F9FE1F4BC2
:104EDC00C3E90054C3E90244C3E904449C619C83C4
:104EEC001B4C1C4D0821204600F0B8F81A4B2360CF
:104EFC002978BFF35B8F11F001010BD1284601918A
:104F0C00FFF7D2F8019928B1144800F063FC284649
:104F1C00FFF7CFF8114BE3600323114A2361002301
:104F2C002375A2612377074A0E4B0F490848236269
:104F3C000123A38403B0BDE8304001F0C1BE00BF23
:104F4C00C0E5032090E5032005410D00A0E50320FA
:104F5C00FCE5032094E503207C7E0D0098E50320FE
:104F6C00E87D0D0080969800794F0D00704710B5C4
:104F7C002821044601F0A9FE204610BD10B50446B8
:104F8C0000F11801C06800F05BFC208A0021BDE82C
:104F9C00104001F0ECBD10B504460121008A01F06F
:104FAC00E6FDE068BDE8104000F031BCF8B51E46E7
:104FBC0003685B690F46144605469847012E88BF67
:104FCC0047F04007E86847F0800100F0A7FC264452
:104FDC00B44206D0E868002100F0A0FC04F8010BF4
:104FEC00F6E72B6828469B6998470120F8BDF8B571
:104FFC001E4603685B690F46144605469847012E0A
:10500C0088BF47F04007E868394600F087FC264423
:10501C00B44205D014F8011BE86800F07FFCF7E7F8
:10502C002B6828469B6998470120F8BD0022027026
:10503C0042708270C270027142718271C2710272CE
:10504C00427282727047002241F0070101700271B6
:10505C0082704270C271427270470000024AC0E90D
:10506C000021002202727047607E0D0013B50368A8
:10507C0001AADC680123A0479DF8040002B010BD12
:10508C0038B505460A240F212846FFF7EFFF3328D1
:10509C004FF0010004D000F0C7FE013CF3D12046D4
:1050AC0038BD10B50446018AC06800F09DFB20464F
:1050BC00BDE81040FFF7E4BFF7B50C4627210546C5
:1050CC00FFF7D4FF00F00800002814BF01260026CB
:1050DC001BD02B686A46DF68282106232846B84770
:1050EC009DF801209DF8003043EA022323809DF8AF
:1050FC0003209DF8023043EA022363809DF80520CB
:10510C009DF8043043EA0223A380304603B0F0BD7F
:10511C0013B503688DF804201C6901AA0123A0476C
:10512C0002B010BD70B503689B6804460D469847E5
:10513C00064630B901F018F8274900F0DEFD30467C
:10514C0070BD2A7820212046FFF7E2FF6A782121E2
:10515C002046FFF7DDFFAA7822212046FFF7D8FF73
:10516C00EA7823212046FFF7D3FF2A792421204611
:10517C00FFF7CEFF6A7925212046FFF7C9FFAB79EF
:10518C001BB126212046FFF771FFAA7A2E2120465B
:10519C00FFF7BEFFAB785B06D1D5EA79322120460A
:1051AC00FFF7B6FF2A7A33212046FFF7B1FF636879
:1051BC00002B0ADB6A7A227220463021FFF7A8FF07
:1051CC0031212046FFF752FFB9E70022227230212D
:1051DC002046FFF79DFFB2E7477E0D0000F024BE8E
:1051EC0000F080B8704770477047000003065ABF44
:1051FC00024B53F820000020704700BF987E0D0032
:10520C0003065ABF024B53F820000020704700BF22
:10521C0098800D0008B5024B1B689B68019308BD74
:10522C006802030008B5024B1B68DB68019308BDDC
:10523C006802030008B5024B1B685B68019308BD4C
:10524C002C02030008B5024B1B689B68019308BD38
:10525C002C02030008B5024B1B68DB68019308BDE8
:10526C002C02030008B5024B1B681B69019308BD97
:10527C002C02030008B5024B1B685B69019308BD47
:10528C002C02030008B5024B1B689B6A019308BDF6
:10529C002C02030008B5024B1B681B6B019308BD65
:1052AC002C02030008B5024B1B689B6F019308BDD1
:1052BC002C02030008B5024B1B685B69019308BD07
:1052CC006C02030008B5024B1B685B68019308BDB8
:1052DC001802030008B5024B1B68DB68019308BD7C
:1052EC001802030008B5024B1B685B69019308BDEB
:1052FC001802030008B5024B1B685B6C019308BDD8
:10530C004802030008B5024B1B689B6C019308BD57
:10531C004802030008B5024B1B685B69019308BD8A
:10532C006402030008B5024B1B681B6A019308BD9D
:10533C006402030008B5024B1B689B6A019308BD0D
:10534C006402030008B5024B1B681B68019308BD7F
:10535C003C02030008B5024B1B68DB68019308BDD7
:10536C003C02030008B5024B1B681B69019308BD86
:10537C003C02030008B5024B1B685B69019308BD36
:10538C003C02030008B5024B1B689B69019308BDE6
:10539C003C02030008B5024B1B68DB69019308BD96
:1053AC003C02030008B5024B1B681B6A019308BD45
:1053BC003C02030008B5024B1B689B6A019308BDB5
:1053CC003C02030008B5024B1B681B6A019308BD25
:1053DC002802030008B5024B1B685B6A019308BDE9
:1053EC002802030008B5024B1B689B6A019308BD99
:1053FC002802030008B5024B1B68DB6A019308BD49
:10540C002802030008B5024B1B681B6B019308BDF7
:10541C002802030008B5024B1B685B6B019308BDA7
:10542C002802030008B5024B1B681B6C019308BDD6
:10543C002802030008B5024B1B689B69019308BD49
:10544C003802030008B5024B1B68DB69019308BDE9
:10545C003802030008B5024B1B681B6A019308BD98
:10546C003802030008B5024B1B689B6A019308BD08
:10547C003802030008B5024B1B681B6B019308BD77
:10548C003802030008B5024B1B689B6B019308BDE7
:10549C003802030008B5024B1B681B68019308BD5A
:1054AC003002030008B5024B1B685B69019308BD11
:1054BC003002030008B5024B1B68DB69019308BD81
:1054CC003002030008B5024B1B681B6A019308BD30
:1054DC003002030008B5024B1B685B6A019308BDE0
:1054EC003002030008B5024B1B68DB6B019308BD4F
:1054FC003002030008B5024B1B681B6C019308BDFE
:10550C003002030008B5024B1B685B6C019308BDAD
:10551C003002030008B5024B1B681B68019308BDE1
:10552C004C02030008B5024B1B685B68019308BD75
:10553C004C02030008B5024B1B681B69019308BDA4
:10554C004C02030008B5024B1B685B69019308BD54
:10555C004C02030008B5024B1B689B69019308BD04
:10556C004C02030008B5024B1B68DB69019308BDB4
:10557C004C02030008B5024B1B681B6A019308BD63
:10558C004C02030008B5024B1B685B6B019308BD12
:10559C006002030008B5024B1B681B6D019308BD2C
:1055AC006002030008B5024B1B685B68019308BDE1
:1055BC002002030008B5024B1B685B69019308BD10
:1055CC002002030008B5024B1B68DB6A019308BD7F
:1055DC002002030008B5034B1B68D3F888300193F5
:1055EC0008BD00002002030008B5034B1B68D3F86C
:1055FC009430019308BD00002002030008B5024B53
:10560C001B685B68019308BD4002030008B5024BA0
:10561C001B689B68019308BD4002030008B5024B50
:10562C001B68DB68019308BD4002030008B5024B00
:10563C001B681B69019308BD4002030008B5024BAF
:10564C001B685B69019308BD4002030008B5024B5F
:10565C001B689B69019308BD4002030008B5024B0F
:10566C001B68DB69019308BD4002030008B5024BBF
:10567C001B681B6A019308BD4002030008B5024B6E
:10568C001B681B6B019308BD4002030008B5024B5D
:10569C001B685B6B019308BD4002030008B5024B0D
:1056AC001B681B6C019308BD4002030008B5024B3C
:1056BC001B685B6C019308BD4002030008B5024BEC
:1056CC001B689B68019308BD4402030008B5024B9C
:1056DC001B68DB6B019308BD4402030008B5024B49
:1056EC001B681B68019308BD1C02030008B5024B24
:1056FC001B685B68019308BD1C02030008B5024BD4
:10570C001B689B68019308BD1C02030008B5024B83
:10571C001B68DB69019308BD1C02030008B5024B32
:10572C001B685B6A019308BD1C02030008B5024BA1
:10573C001B68DB6B019308BD1C02030008B5024B10
:10574C001B685B6C019308BD1C02030000224068BF
:10575C001146FFF78BBF002240681146FFF796BF3A
:10576C0040680022FFF78ABF4068002281F00101E7
:10577C00FFF774BF002340681A461946FFF766BF4F
:10578C00002340681A461946FFF758BF00224068AC
:10579C001146FFF74BBF002240681146FFF736BF9A
:1057AC00406800220221FFF739BF002340681A46E7
:1057BC00FFF724BF024B03225A60024A1A6070475B
:1057CC0050E60320A0820D000021FFF793BE0021BC
:1057DC00FFF798BE10B5044608462170FFF76AFE25
:1057EC0000236360204610BD13B504460078019178
:1057FC00FFF7EAFF019940B92078FFF74BFE2078BC
:10580C0002B0BDE81040FFF7E2BF02B010BD007857
:10581C00FFF7DDBF400830B51860002418688842D7
:10582C00E5B206D90134082C02D040081860F5E71F
:10583C000725024B5B5D137030BD00BFD4820D0099
:10584C002DE9F04306468FB000780C46FFF7BCFFFD
:10585C0000281BDB35781422002109A802F080F9FE
:10586C000B23002209A92846ADF82430FFF732FE9D
:10587C009DF82D3013B19DF82C5055B10027B94629
:10588C00B846012523795DB1C3B100200FB0BDE846
:10589C00F083DDF830809DF834909DF83570F1E799
:1058AC00002B35D1A368434508D18DF820908DF895
:1058BC002170BDF82020A3899A42E6D00023A1686C
:1058CC008DF80F300A9804AB0DF10F02FFF7A2FF11
:1058DC00217985B989B9A36843450ED38DF82090F9
:1058EC008DF82170BDF82020A3899A4205D1049B24
:1058FC00434502D1C9E70029F9D100230193637B09
:10590C0000939DF80F20237B3078FFF7EBFDBCE76D
:10591C00CDE900552B462A460121F5E708B500785C
:10592C00FFF7C0FDC0B208BD10B50446006818B141
:10593C00FFF7DCFE0023236010BD10B50446FFF713
:10594C00F3FF204610BD000010B5094B094C022294
:10595C0000201A60084B2060A080A071A360FFF7A4
:10596C0021FE2046054A0649BDE8104001F0A8B9C1
:10597C0064E6032058E603200000FFFF90E50320B7
:10598C0047590D0010B5044602F028F901382318C8
:10599C002046834206D90278197800F8011B03F8D7
:1059AC000129F6E710BD70B50C46911E222905465B
:1059BC0022D820466DB1B5FBF2F602FB1655E9B2C2
:1059CC00092D94BF30315731C9B200F8011B35464F
:1059DC00F0E7024623443021934202D902F8011B1E
:1059EC00FAE71A1A834238BF002200238354204658
:1059FC00FFF7C8FF204670BD0020FCE770B586B0ED
:105A0C00064601AD684600F043FB0FCD341D0FC4B4
:105A1C002B682370304606B070BD00002DE9F047AE
:105A2C0057EC106B80460C4610EE100A0022002337
:105A3C00394601F08FFE28B107F100431F462D2394
:105A4C0004F8013B00234FF001090A22D9B2884522
:105A5C0003D902FB09F90133F8E7484601F09EFB34
:105A6C0032463B4601F004FC06460F4601F0D2FEDE
:105A7C0005468A4601F0C6FB02460B4630463946BF
:105A8C0001F03EFA134B002201F078FE10B1013503
:105A9C004AF1000A4A462846D317514601F0A2FEA5
:105AAC000123154621460A22FFF77DFFB8F1000FAE
:105ABC000DD0204602F092F82E23211823540A22EE
:105ACC00434628460131BDE8F047FFF76CBFBDE8FF
:105ADC00F08700BF0000E03F10B504460068FFF7F8
:105AEC0005FE204610BD10B50446006808B1FFF74E
:105AFC00FDFD0023C4E90133236010BD38B5044615
:105B0C000D4600680131FFF7F9FD10B1C4E900053D
:105B1C00012038BD10B50368044623B143688B429D
:105B2C0001D3012010BD2046FFF7E8FF0028F9D073
:105B3C00A368002BF5D122681370F2E737B50D4638
:105B4C00114601920446FFF7E5FF019A28B9204659
:105B5C00FFF7C9FF204603B030BDA260294620687C
:105B6C0001F0F0FF2268A3680021D154F2E7002372
:105B7C0013B5C0E9003304468360037341B1084692
:105B8C00019102F02BF8019902462046FFF7D6FF4F
:105B9C00204602B010BD13B5044659B10846019118
:105BAC0002F01CF8019902462046FFF7C7FF204679
:105BBC0002B010BDFFF797FFF9E710B504468AB0A5
:105BCC0000230846C4E90033A360237301A9C0B2C3
:105BDC00FFF724FF01A92046FFF7DDFF20460AB09E
:105BEC0010BD70B505460E4609B9002070BD6AB1EE
:105BFC00846814442146FFF78DFF0028F5D02868EF
:105C0C00AB683146184401F0E1FFAC600120EDE7D0
:105C1C008A680968FFF7E5BF13B50446084651B119
:105C2C00019101F0DBFF01990246204602B0BDE86C
:105C3C001040FFF7D6BF02B010BD10B50446006887
:105C4C0008B1FFF75FFB204610BD10B58368044612
:105C5C0013B1032201469847204610BD10B5064CDF
:105C6C00002320462360FFF745FB2046034A0449E6
:105C7C00BDE8104001F024B868E6032090E503204D
:105C8C00475C0D00F8B506460D468F180024BD4242
:105C9C000CD0336815F8011B9B6830469847031EDF
:105CAC0001DB1C44F3E7002C08BF1C462046F8BD62
:105CBC0013B50446084659B1019101F08FFF2368D2
:105CCC000199DB680246204602B0BDE81040184737
:105CDC0002B010BD08B5FFF7EBFF08BD03689B6869
:105CEC00184738B50D210546FFF7F8FF0A21044681
:105CFC002846FFF7F3FF204438BD38B50546FFF7BB
:105D0C00D7FF04462846FFF7ECFF204438BD30B5DA
:105D1C008BB000238DF82430012A98BF0A2209ACDD
:105D2C000D46B1FBF2F101FB125303F0FF03092BFB
:105D3C0094BF30333733DBB2AA4204F8013DEFD9BC
:105D4C002146FFF7B5FF0BB030BD2DE9F04186B011
:105D5C0000AF05460E46381D142114463B60FFF774
:105D6C00DDFC13280ED8391D2846FFF7A1FF044689
:105D7C001EB12846FFF7B5FF044420461837BD4630
:105D8C00BDE8F08100F1080323F00703E846ADEB12
:105D9C00030D2246411C3B686846FFF7BFFC694671
:105DAC002846FFF785FF0446C546E1E710B50446D3
:105DBC00FFF798FAE060236820465B699847002853
:105DCC0008DAFFF78FFAE368C01AA3689842F2D397
:105DDC004FF0FF3010BDF8B506460D4617460024AF
:105DEC00BC4207D03046FFF7E1FF031E02DB2B5508
:105DFC000134F5E72046F8BD002340681A461946E1
:105E0C00FFF71CBC014B024A1A6070476CE603207A
:105E1C00E4820D00024B1A68024B1A60704700BFF7
:105E2C0028E5032070E603200021FFF7C3BB10B563
:105E3C000446FFF70AFF204610BD00000348044A41
:105E4C0004490023836000F03BBF00BF74E60320CD
:105E5C0090E503203B5E0D00014B1860704700BFBE
:105E6C002CE5032008B50B4B43B100F07DF903681A
:105E7C001B699847002801DDAFF30080064B43B146
:105E8C0000F0F0F903681B699847002801DDAFF3B7
:105E9C00008008BD000000000000000008B5FFF7FE
:105EAC00E1FFFFF71FFA014B186008BDD4E7032090
:105EBC000248034A0349121A01F044BE00F40320BD
:105ECC0004F40320C8860D0007B5002300931A467E
:105EDC006FF07701FFF788FB03B05DF804FB00005F
:105EEC0007B543880A2B08D0502B0BD1094B1B68E4
:105EFC004BB103B05DF804EB1847FFF7E5FF03B0B7
:105F0C005DF804FB002300931A466FF07701FFF74E
:105F1C006BFBF4E788E6032038B5124C1248134D9E
:105F2C000021FFF70BFC2368AB42114B0CBF012285
:105F3C0000221A7002D0FFF7BBFF2560FFF7C2F9F1
:105F4C00044601F015FE0B4B13B12046AFF3008055
:105F5C0000210848FFF7BAFBBDE83840064800218D
:105F6C00FFF738BB00F40320655E0D001E1C279A5A
:105F7C0084E6032000000000ED5E0D00704710B5B4
:105F8C001821044600F0A1FE204610BDF0B5037D9B
:105F9C00062B8DB00E4600F104074FF0000412D012
:105FAC0000F1080515F8011D0A223046FFF7AFFE77
:105FBC00AF42044419D0002CF4D02E213046FFF708
:105FCC008DFE0444EEE72F236A4639460A208DF8ED
:105FDC000040FFF79FF9684601F000FE3368024667
:105FEC00DB68694630469847044620460DB0F0BD44
:105FFC0010B5054B0446112240F8043B002101F07A
:10600C00AFFD204610BD00BF0C830D000346074AB0
:10601C0010B543F8042B01F1100251F8044B43F86E
:10602C00044B9142F9D10A781A7010BD0C830D0003
:10603C00037D042B04D14068003818BF0120704741
:10604C00062B07D143683BB983682BB9C3681BB9CE
:10605C000069F1E7002070470120704710B59DF8EA
:10606C00084044EA032343EA024242EA0161042362
:10607C004160037510BD000037B5044D05609DF8F7
:10608C0018500095FFF7EAFF03B030BD0C830D00EC
:10609C0013B5054B0360CB7800938B784A7809785D
:1060AC00FFF7DCFF02B010BD0C830D00417470478C
:1060BC00704708B50021007CFFF74CFA40EAE0700D
:1060CC0008BD08B50121007CFFF744FA40EAE070F6
:1060DC0008BD08B5007CFFF735FA20EAE07008BD72
:1060EC0008B5007CFFF726FA20EAE07008BD13B56E
:1060FC000446007C0191FFF725FA0028019901DC88
:10610C00607C20B1207CFFF72DFA20EAE07002B011
:10611C0010BD007CFFF72EBA10B51421044600F018
:10612C00D4FD204610BD000010B54FF47A73044620
:10613C0008460021C4E90113044B23600123207499
:10614C0063741146FFF7E6F9204610BD20830D005D
:10615C00007C0022FFF7E6B910B51422044600219A
:10616C0001F0FEFC204610BD10B5104C88B003A801
:10617C00FFF7F2FF2178BFF35B8F11F0010111D112
:10618C0020460191FDF790FF019958B103AA0848E8
:10619C00FFF7CAFF2046FDF78CFF064A0649044864
:1061AC0000F08EFD024808B010BD00BF8CE6032045
:1061BC0090E6032090E50320BD600D00704741740C
:1061CC00704708B5007CFFF7F5F820EAE07008BDD1
:1061DC0008B5007CFFF7C6F820EAE07008BD08B5EA
:1061EC00007CFFF7CFF840EAE07008BD08B5007CF2
:1061FC00FFF7C0F840EAE07008BD007CFFF7CAB8B2
:10620C0037B5457C04462DB1207C03B0BDE8304049
:10621C00FFF7A0B8007C0191FFF7CCF8002801999A
:10622C00F2DC284603B030BD10B51421044600F052
:10623C004CFD204610BD000010B54FF0000C04467C
:10624C00084611464FF47A72C4E901C2044A22602E
:10625C000122207462741A46FFF774F8204610BDB0
:10626C0050830D0013B50E4C2178BFF35B8F11F0EA
:10627C00010112D120460191FDF716FF019960B181
:10628C00084A094B0948FFF7D7FF2046FDF711FFD5
:10629C00074A0849054800F013FD044802B010BD38
:1062AC00A4E60320A8E603202CE70320B0E7032094
:1062BC0090E50320C9610D007047F8B506461546F8
:1062CC000C468F18BC4206D0336814F8011B9B682F
:1062DC0030469847F6E72846F8BD007C0022FFF7C9
:1062EC0071B8007C0021FFF775B8007C0021FFF726
:1062FC0079B8007C0021FFF77DB8007C0021FFF706
:10630C0081B810B51421044600F0DFFC204610BD06
:10631C0010B54FF47A73044608460021C4E9011302
:10632C00034B236020741146FFF77CF8204610BD08
:10633C0080830D0013B503688DF80710DC6B012208
:10634C004FF0FF330DF10701A04702B010BD10B4A0
:10635C000368DC6B4FF0FF33A4465DF8044B6047D9
:10636C0013B5134602688DF80710D46B0DF10701B5
:10637C000122A04702B010BD704738B543691A68B6
:10638C00002A054610DAB3F88620B3F884309A4216
:10639C000AD103681B699847044628B92B6828461C
:1063AC00DB6A9847204638BD0120FCE74369186832
:1063BC00C043C00F70477047064B994210B500F1AF
:1063CC000C0405D0084600F085FC002808BF00240A
:1063DC00204610BDDC820D0010B5AC21044600F047
:1063EC0074FC204610BDFDF752BE2DE9F0414FF074
:1063FC00000886B01D46C0F8048004460E461746B9
:10640C004146102202A801F0ABFB6B1C09D04FF4E3
:10641C007A70B5FBF0F3CDE9023800FB1353584307
:10642C000490606910230093006802AB41F20502EE
:10643C0040F6FF71FEF7FEFF002807DAFFF776F94A
:10644C0003686360002006B0BDE8F081606900233A
:10645C0000683A463146FFF70DF8031EEEDB18468E
:10646C00F1E7000038B584690A4B036005467CB13E
:10647C006368013B63605BB9236820469B6898475F
:10648C00A368013BA3601BB923682046DB689847CF
:10649C00284638BDDC830D0010B50446FFF7E2FF3B
:1064AC0020461C2100F011FC204610BD70B54D6932
:1064BC00054B04468C3544F8043B06460FCD0FC4FF
:1064CC002B682370304670BD0C830D0010B54369EA
:1064DC00B3F88620B3F884309A42044605D0636939
:1064EC00B3F884201344187910BD03681B699847CE
:1064FC000028F4D14FF0FF30F6E710B54369B3F83C
:10650C008620B3F884309A42044608D06369B3F805
:10651C008420511CA3F884101344187910BD03680F
:10652C001B6998470028F1D14FF0FF30F6E7F8B51A
:10653C0043691746B3F88620B3F884309A4205466F
:10654C000E4616D06969B1F88430B1F88640E41A69
:10655C00BC4228BF3C46043322461944304601F065
:10656C00F1FA6A69B2F884302344A2F884302046E8
:10657C00F8BD03681B6998470028E3D14FF0FF343E
:10658C00F5E742690023A2F884304269A2F886300C
:10659C0070472DE9F0411F4603680C46DB6A8AB050
:1065AC00054616469847237DD5F81480042B0CBF5E
:1065BC0002200A2006220121FEF764FFC8F8000021
:1065CC006B691B68002B08DA2B682846DB6A0024F1
:1065DC00984720460AB0BDE8F0812846FFF7D1FF66
:1065EC00B7B1002303A9F8B20393ADF81030FEF74E
:1065FC0061FE0028E8D1686906230093006803ABAC
:10660C0041F20B0240F6FF71FEF714FF0028DBD1BC
:10661C001C22002103A801F0A3FA237D042B1DD119
:10662C004FF407733046ADF80C30FEF783FEADF82F
:10663C000E006068FEF776FE04906B691C221868E9
:10664C0003A9FEF707FF0028BED104340FCC6D69F7
:10665C008C350FC523682B700124BAE740F61C2338
:10666C003046ADF80C30FEF765FE05AEADF80E0009
:10667C00231D04F1140718685968324603C2083305
:10668C00BB421646F7D1D8E730B54269B2F886302E
:10669C008BB004462BB1B2F884209A4201D1FFF79B
:1066AC0070FF61690868002818DBB1F886507F2DEF
:1066BC0014D804310823C5F180022944FEF7D2FE18
:1066CC00002813DD6369B3F886200AB9A3F8842087
:1066DC006369B3F886201044A3F886006369B3F8A5
:1066EC008600B3F88430C01A0BB030BDFFF71EF82B
:1066FC0003680B2BF2D0FFF719F803680B2BEDD0C6
:10670C0020230025CDE90235FFF710F8036801932B
:10671C00084B0949009302AA2B463220FEF73AFF98
:10672C0063691868FEF78EFE63694FF0FF321A60DA
:10673C00D4E700BFA7830D00A0830D0010B54369FB
:10674C0004461868002801DBFEF77CFE63694FF0F5
:10675C00FF321A606069112200218C3001F000FABE
:10676C002046BDE81040FFF70CBF10B500230446CF
:10677C000160C0F884308830FFF73AFC204610BD29
:10678C0073B500234FF47A72C0E901320E4A0361EB
:10679C00026043610446AC200191FDF774FC051EB8
:1067AC0005F10C0608D00123C5E90133074B01990B
:1067BC002B603046FFF7D9FF2046C4E90565FFF78B
:1067CC00E0FE02B070BD00BFDC830D00C0830D0085
:1067DC0010B54FF0FF310446FFF7D2FF204610BD35
:1067EC0010B504460068002801DBFEF72BFE20469E
:1067FC0010BD0C30FFF7F4BF2DE9F0439846036849
:10680C0093B00D460024DB6A064617469847284687
:10681C006B46224621460094FEF704FD05460028EF
:10682C0063D1009B002B4BD05B69002B48D006A892
:10683C00FFF7DEFB009B5C696378022B04D1211D02
:10684C0006A8FFF7DBF826E00A2B24D111222946F3
:10685C0001A801F085F9A368002B38D004F10803D6
:10686C000DF1040C183418685968624603C20833D9
:10687C00A3429446F7D1062301A90CA88DF8143035
:10688C00FFF7C4FB0DF1340CBCE80F0007AC0FC4D0
:10689C00DCF80030237006A8FFF7CAFB80B1336820
:1068AC0007ADD3F82090124B0C930FCD0DAC0FC449
:1068BC002B6823703A4643460CA93046C847054618
:1068CC000098FEF7A7FC284613B0BDE8F083E368F8
:1068DC00002BC3D14FF6FF70D4F81090FEF722FDB9
:1068EC008145BBD104F11401AAE72546E8E700BFB6
:1068FC000C830D00002240681146FEF797BE002263
:10690C0040681146FEF7B2BE002240681146FEF701
:10691C00BDBE40680022FEF7B1BE4068002281F087
:10692C000101FEF79BBE002340681A461946FEF78C
:10693C008DBE002240681146FEF768BE40680022FA
:10694C000221FEF76BBE002340681A46FEF756BEC6
:10695C00024B04225A60024A1A607047C4E70320B3
:10696C0028840D00002340681A46FEF747BE406895
:10697C0000220221FEF752BE002240681146FEF7AB
:10698C0045BE002240681146FEF750BE0023406809
:10699C001A461946FEF752BE002340681A4619469D
:1069AC00FEF754BE40680021FEF778BE4068002117
:1069BC00FEF77CBE4068002281F00101FEF74EBE5E
:1069CC0040680022FEF75ABE002240681146FEF7CE
:1069DC005DBE002240681146FEF748BE2DE9F0432B
:1069EC00002495B016460D460746FFF701FB2146DD
:1069FC0018220EA8009401F0B3F84023CDE90C3412
:106A0C0021466B460CAA3046FEF70CFC04460028C7
:106A1C004CD1024601216868FEF708FE022180462F
:106A2C0022466868FEF702FE009E81462146002E33
:106A3C003CD000293AD17368022B03D00A2B11D019
:106A4C00F669F4E7B8F1000F0AD0716906A80431B1
:106A5C0007ADFFF71DFB0FCD3C1D0FC42B6823703A
:106A6C004146EDE7B9F1000F01D14946E8E77469F9
:106A7C00102201A801F074F806238DF8143001AD32
:106A8C0004F108031834186859682A4603C20833FD
:106A9C00A3421546F7D101A906A807ADFFF7B6FA30
:106AAC000FCD3C1D0FC42B682370DEE70098FEF75A
:106ABC00B1FB384615B0BDE8F0830000024B034A29
:106ACC001A6000225A607047CCE7032064840D00E2
:106ADC00232813B502D9002002B010BDA0F10B037E
:106AEC00022B1AD8174C2178BFF35B8F11F00101E0
:106AFC000BD120460191FDF7D7FA019928B1124824
:106B0C00FEF768FE2046FDF7D4FA0F4B1878FEF717
:106B1C00D9FC0028DFD10120DEE7012809D800F0DC
:106B2C00A7F80021007CFEF775FC80F00100C0B2D4
:106B3C00D2E709380128EED8FFF794FB007CFEF76A
:106B4C0031FCF2E794E5032098E50320232838B5BF
:106B5C0004460D460AD8FF2908D0FFF7B9FF28B123
:106B6C0029462046BDE83840FEF76CBB38BD38B529
:106B7C0004460D46FEF76EFBFF2810D0062804D8FD
:106B8C004D2323FA00F0C30709D42046FFF7A0FFDA
:106B9C0028B129462046BDE83840FEF763BB38BD16
:106BAC0010B50446FEF756FB031FDBB2012B08D9C8
:106BBC002046FFF78DFF20B12046BDE81040FEF7C0
:106BCC0059BB002010BD0D2810B504469CBF0E34D7
:106BDC00A4B22046FFF77CFF50B103212046FEF7FC
:106BEC0029FB032804D12046BDE81040FEF752BB18
:106BFC00002010BD38B504460D46FFF769FFF0B113
:106C0C0004212046FEF716FB042805D1A9B2204624
:106C1C00BDE83840FEF736BB02212046FEF70AFBE2
:106C2C0002280CD12046FEF715FB012801D00428C0
:106C3C0005D129462046BDE83840FEF733BB38BDA8
:106C4C0038B5002320254380142304460380856037
:106C5C0005610649284600F03AF804496060284668
:106C6C0000F035F8E060204638BD00BF98840D0078
:106C7C0030B50F4D2978BFF35B8F11F0010487B04D
:106C8C0013D12846FDF710FA78B101A8FFF7D8FF09
:106C9C0001AA21460748FFF73BFB2846FDF709FAF6
:106CAC00054A0649034800F00BF8024807B030BD0E
:106CBC00D8E70320DCE7032090E50320C5620D0034
:106CCC000B460146184600F02FBFFDF7E0B9FDF763
:106CDC00DCB90000014900F0F9B800BFB4840D0024
:106CEC007FB500241023CDE90234036800949E691B
:106CFC008DF8044015466B461268B0479DF8043079
:106D0C0003F00603062B03BF009B2B6001202046DB
:106D1C0004B070BD0098904214BF0120062070474B
:106D2C0010B5034B0360044600F0CDF8204610BDAF
:106D3C00F4840D0010B50446FFF7F2FF204608213D
:106D4C00FFF7C3FF204610BD2DE9F0411F46DDE9DA
:106D5C000834DDF8188098450646154607D1079982
:106D6C0000F0B4F818B165710020BDE8F081394627
:106D7C00304600F0ABF80028F6D00123C4F80080B0
:106D8C002571A371F0E738B515461C4600F09EF846
:106D9C0020B10823E36006232560237138BD73B549
:106DAC0005460C4601921E4600F090F850B9032E91
:106DBC0008D82368019A5B692946204602B0BDE8D1
:106DCC007040184702B070BD10B5034B0360044609
:106DDC00FFF7A6FF204610BD54850D0010B50446E4
:106DEC00FFF7F2FF20460C21FFF76FFF204610BD86
:106DFC00F7B5089F974205460E4614460AD0A86878
:106E0C0002680897156A31462246AC4603B0BDE8C5
:106E1C00F04060471946019300F058F8019B002898
:106E2C00EDD0062003B0F0BD2DE9F14F0D4619460B
:106E3C00DDE90A4BDDE90CA681461746984600F0C1
:106E4C0045F890B1002D3460377109DB61198A4522
:106E5C000CBF06210121B171002001B0BDE8F08FFB
:106E6C000235F9D10123B371F6E7544506D15946E1
:106E7C00484600F02BF808B17771EDE7D9F8080017
:106E8C000368CDE90CA6CDE90A4BDC693A464346CA
:106E9C002946A44601B0BDE8F04F60472DE9F0410A
:106EAC0007460C4615461E46FFF76DFF48B9B868F5
:106EBC0003689F692A4633462146BC46BDE8F0412B
:106ECC006047BDE8F081704700207047814208B5EB
:106EDC000ED0406803782A2B0CD049680B782A2BEB
:106EEC0008BF013100F068FEB0FA80F0400908BD1F
:106EFC000120FCE70020FAE781F0004102E000BF2E
:106F0C0083F0004330B54FEA41044FEA430594EA5D
:106F1C00050F08BF90EA020F1FBF54EA000C55EA98
:106F2C00020C7FEA645C7FEA655C00F0E2804FEA69
:106F3C005454D4EB5555B8BF6D420CDD2C4480EA4B
:106F4C00020281EA030382EA000083EA010180EA7B
:106F5C00020281EA0303362D88BF30BD11F0004FC9
:106F6C004FEA01314FF4801C4CEA113102D04042FF
:106F7C0061EB410113F0004F4FEA03334CEA13333A
:106F8C0002D0524263EB430394EA050F00F0A78052
:106F9C00A4F10104D5F1200E0DDB02FA0EFC22FA4D
:106FAC0005F2801841F1000103FA0EF2801843FA41
:106FBC0005F359410EE0A5F120050EF1200E012A32
:106FCC0003FA0EFC28BF4CF0020C43FA05F3C01870
:106FDC0051EBE37101F0004507D54FF0000EDCF1E9
:106FEC00000C7EEB00006EEB0101B1F5801F1BD392
:106FFC00B1F5001F0CD349085FEA30004FEA3C0C96
:10700C0004F101044FEA445212F5800F80F09A808B
:10701C00BCF1004F08BF5FEA500C50F1000041EB8F
:10702C00045141EA050130BD5FEA4C0C404141EB93
:10703C000101013C28BFB1F5801FE9D291F0000F8E
:10704C0004BF01460020B1FA81F308BF2033A3F13D
:10705C000B03B3F120020CDA0C3208DD02F1140C34
:10706C00C2F10C0201FA0CF021FA02F10CE002F16F
:10707C001402D8BFC2F1200C01FA02F120FA0CFC68
:10708C00DCBF41EA0C019040E41AA2BF01EB0451B1
:10709C00294330BD6FEA04041F3C1CDA0C340EDCAF
:1070AC0004F11404C4F1200220FA04F001FA02F3F2
:1070BC0040EA030021FA04F345EA030130BDC4F1B0
:1070CC000C04C4F1200220FA02F001FA04F340EAA5
:1070DC000300294630BD21FA04F0294630BD94F056
:1070EC00000F83F4801306BF81F480110134013D3D
:1070FC004EE77FEA645C18BF7FEA655C29D094EAAE
:10710C00050F08BF90EA020F05D054EA000C04BF2B
:10711C001946104630BD91EA030F1EBF0021002016
:10712C0030BD5FEA545C05D14000494128BF41F0B5
:10713C00004130BD14F580043CBF01F5801130BD19
:10714C0001F0004545F0FE4141F470014FF00000A4
:10715C0030BD7FEA645C1ABF194610467FEA655C55
:10716C001CBF0B46024650EA013406BF52EA0335F7
:10717C0091EA030F41F4002130BD00BF90F0000FE5
:10718C0004BF0021704730B54FF4806404F1320421
:10719C004FF000054FF0000150E700BF90F0000FDA
:1071AC0004BF0021704730B54FF4806404F1320401
:1071BC0010F0004548BF40424FF000013EE700BFD1
:1071CC0042004FEAE2014FEA31014FEA02701FBF61
:1071DC0012F07F4393F07F4F81F06051704732F093
:1071EC007F4208BF704793F07F4F04BF41F40021EA
:1071FC00704730B54FF4607401F0004521F0004148
:10720C001CE700BF50EA010208BF704730B54FF0D1
:10721C0000050AE050EA010208BF704730B511F0D2
:10722C00004502D5404261EB41014FF4806404F10A
:10723C0032045FEA915C3FF4D8AE4FF003025FEA90
:10724C00DC0C18BF03325FEADC0C18BF033202EB14
:10725C00DC02C2F1200300FA03FC20FA02F001FA6E
:10726C0003FE40EA0E0021FA02F11444BDE600BF11
:10727C0070B54FF0FF0C4CF4E06C1CEA11541DBFC0
:10728C001CEA135594EA0C0F95EA0C0F00F0DEF88B
:10729C002C4481EA030621EA4C5123EA4C5350EA70
:1072AC00013518BF52EA033541F4801143F48013C1
:1072BC0038D0A0FB02CE4FF00005E1FB02E506F052
:1072CC000042E0FB03E54FF00006E1FB03569CF0A7
:1072DC00000F18BF4EF0010EA4F1FF04B6F5007FAD
:1072EC0064F5407404D25FEA4E0E6D4146EB06061F
:1072FC0042EAC62141EA55514FEAC52040EA5E50A8
:10730C004FEACE2EB4F1FD0C88BFBCF5E06F1ED851
:10731C00BEF1004F08BF5FEA500E50F1000041EB88
:10732C00045170BD06F0004646EA010140EA020035
:10733C0081EA0301B4EB5C04C2BFD4EB0C0541EA57
:10734C00045170BD41F480114FF0000E013C00F36C
:10735C00AB8014F1360FDEBF002001F0004170BD90
:10736C00C4F10004203C35DA0C341BDC04F11404A9
:10737C00C4F1200500FA05F320FA04F001FA05F235
:10738C0040EA020001F0004221F0004110EBD37002
:10739C0021FA04F642EB06015EEA430E08BF20EA2E
:1073AC00D37070BDC4F10C04C4F1200500FA04F3D1
:1073BC0020FA05F001FA04F240EA020001F0004163
:1073CC0010EBD37041F100015EEA430E08BF20EAD6
:1073DC00D37070BDC4F1200500FA05F24EEA020E1E
:1073EC0020FA04F301FA05F243EA020321FA04F04D
:1073FC0001F0004121FA04F220EA020000EBD37004
:10740C005EEA430E08BF20EAD37070BD94F0000F03
:10741C000FD101F00046400041EB010111F4801F37
:10742C0008BF013CF7D041EA060195F0000F18BFE8
:10743C00704703F00046520043EB030313F4801F24
:10744C0008BF013DF7D043EA0603704794EA0C0FDE
:10745C000CEA135518BF95EA0C0F0CD050EA4106F4
:10746C0018BF52EA4306D1D181EA030101F0004171
:10747C004FF0000070BD50EA410606BF1046194699
:10748C0052EA430619D094EA0C0F02D150EA0136A5
:10749C0013D195EA0C0F05D152EA03361CBF1046E6
:1074AC0019460AD181EA030101F0004141F0FE4185
:1074BC0041F470014FF0000070BD41F0FE4141F409
:1074CC00780170BD70B54FF0FF0C4CF4E06C1CEA09
:1074DC0011541DBF1CEA135594EA0C0F95EA0C0FBE
:1074EC0000F0A7F8A4EB050481EA030E52EA033579
:1074FC004FEA013100F088804FEA03334FF080559A
:10750C0045EA131343EA12634FEA022245EA1115C6
:10751C0045EA10654FEA00260EF000419D4208BF77
:10752C00964244F1FD0404F5407402D25B084FEA24
:10753C003202B61A65EB03055B084FEA32024FF4D0
:10754C0080104FF4002CB6EB020E75EB030E22BF2D
:10755C00B61A754640EA0C005B084FEA3202B6EBED
:10756C00020E75EB030E22BFB61A754640EA5C009C
:10757C005B084FEA3202B6EB020E75EB030E22BF2C
:10758C00B61A754640EA9C005B084FEA3202B6EB2D
:10759C00020E75EB030E22BFB61A754640EADC00EC
:1075AC0055EA060E18D04FEA051545EA16754FEA4E
:1075BC0006164FEAC30343EA52734FEAC2025FEA6C
:1075CC001C1CC0D111F4801F0BD141EA00014FF0FB
:1075DC0000004FF0004CB6E711F4801F04BF0143CC
:1075EC000020B4F1FD0C88BFBCF5E06F3FF6AFAEE8
:1075FC00B5EB030C04BFB6EB020C5FEA500C50F178
:10760C00000041EB045170BD0EF0004E4EEA1131FA
:10761C0014EB5C04C2BFD4EB0C0541EA045170BD01
:10762C0041F480114FF0000E013C90E645EA060E45
:10763C008DE60CEA135594EA0C0F08BF95EA0C0F73
:10764C003FF43BAF94EA0C0F0AD150EA01347FF4BB
:10765C0034AF95EA0C0F7FF425AF104619462CE792
:10766C0095EA0C0F06D152EA03353FF4FDAE1046F5
:10767C00194622E750EA410618BF52EA43067FF446
:10768C00C5AE50EA41047FF40DAF52EA43057FF4D6
:10769C00EBAE12E74FF0FF3C06E000BF4FF0010CE1
:1076AC0002E000BF4FF0010C4DF804CD4FEA410C45
:1076BC007FEA6C5C4FEA430C18BF7FEA6C5C1BD012
:1076CC0001B050EA410C0CBF52EA430C91EA030F93
:1076DC0002BF90EA020F0020704710F1000F91EAF0
:1076EC00030F58BF994208BF90422CBFD8176FEABE
:1076FC00E37040F0010070474FEA410C7FEA6C5C8C
:10770C0002D150EA013C07D14FEA430C7FEA6C5C92
:10771C00D6D152EA033CD3D05DF8040B704700BFBE
:10772C008446104662468C461946634600E000BF0C
:10773C0001B5FFF7B7FF002848BF10F1000F01BDDE
:10774C004DF808EDFFF7F4FF0CBF012000205DF8A9
:10775C0008FB00BF4DF808EDFFF7EAFF34BF01202E
:10776C0000205DF808FB00BF4DF808EDFFF7E0FFC7
:10777C0094BF012000205DF808FB00BF4DF808ED18
:10778C00FFF7CEFF94BF012000205DF808FB00BF7F
:10779C004DF808EDFFF7C4FF34BF012000205DF861
:1077AC0008FB00BF4A0011D212F5001211D20DD500
:1077BC006FF47873B3EB62520ED44FEAC12343F0EB
:1077CC00004343EA505323FA02F070474FF0000095
:1077DC00704750EA013002D14FF0FF3070474FF044
:1077EC000000704753B94AB9002908BF00281CBFD4
:1077FC004FF0FF314FF0FF3000F08CB9ADF1080CB9
:10780C006DE904CE00F024F8DDF804E0DDE9022394
:10781C0004B07047D0B50C4B002206460F46FFF75C
:10782C0027FDFFF7BFFF0446FFF7A8FC074B00221C
:10783C00FFF71EFD02460B4630463946FFF760FB4C
:10784C00FFF7B0FF2146D0BD0000F03D0000F04135
:10785C002DE9F047089D04468C46002B40F08380B0
:10786C008A42174647D9B2FA82F242B1C2F12000DD
:10787C0024FA00F09140974040EA010C94404FEA02
:10788C001748230CBCFBF8F61FFA87FE08FB16C141
:10789C0043EA014306FB0EF1994209D9FB1806F1A4
:1078AC00FF3080F01981994240F21681023E3B4430
:1078BC005B1AA4B2B3FBF8F008FB103344EA0344A0
:1078CC0000FB0EFEA64509D93C1900F1FF3380F0F0
:1078DC000581A64540F2028102383C4440EA06404C
:1078EC00A4EB0E0400261DB1D4400023C5E90043CF
:1078FC003146BDE8F08702B9FFDEB2FA82F2002A07
:10790C0050D1CB1B4FEA174E1FFA87F80126B3FB59
:10791C00FEFC210C0EFB1C3341EA034108FB0CF36B
:10792C008B4207D979180CF1FF3002D28B4200F24E
:10793C00E9808446C91AA3B2B1FBFEF00EFB10110C
:10794C0043EA014408FB00F8A04507D93C1900F1B3
:10795C00FF3302D2A04500F2D9801846A4EB0804EC
:10796C0040EA0C40BFE78B4209D9002D00F0B180F2
:10797C000026C5E9000130463146BDE8F087B3FA70
:10798C0083F6002E4AD18B4202D3824200F2B88099
:10799C00841A61EB030101208C46002DA8D0C5E9A7
:1079AC00004CA5E7C2F1200320FA03F6974001FA38
:1079BC0002F04FEA174ED9403043030CB1FBFEF6F0
:1079CC001FFA87F80EFB161143EA014306FB08F178
:1079DC00994204FA02F409D9FB1806F1FF3C80F035
:1079EC008D80994240F28A80023E3B445B1A81B200
:1079FC00B3FBFEF00EFB103341EA034100FB08F32E
:107A0C008B4207D9791800F1FF3C73D28B4271D9A4
:107A1C0002383944CB1A40EA064678E7C6F1200C06
:107A2C0003FA06F422FA0CF31C4320FA0CF701FAC1
:107A3C0006F34FEA144E21FA0CF11F433B0CB1FB39
:107A4C00FEF91FFA84F80EFB191143EA014109FBF8
:107A5C0008FA8A4502FA06F200FA06F308D9611808
:107A6C0009F1FF3048D28A4546D9A9F102092144CF
:107A7C00A1EB0A01BFB2B1FBFEF00EFB101147EAFD
:107A8C00014700FB08F8B84507D9E71900F1FF31A9
:107A9C002ED2B8452CD90238274440EA0940A7EB2E
:107AAC000807A0FB02894F45C64649461AD317D092
:107ABC005DB1B3EB0E0267EB010707FA0CFCF24069
:107ACC004CEA0202F740C5E9002700263146BDE822
:107ADC00F0872E4628460BE70646E9E61846FDE6F3
:107AEC004345E5D2B8EB020E69EB04010138DFE740
:107AFC000846D2E760468DE78146B9E7664675E7EA
:107B0C0030464AE7ACF1020C394413E702383C44E6
:107B1C0024E700BF704700BF0A22002100F0F4B830
:107B2C000A22002100F0F0B810B5054C13462CB118
:107B3C000A4601460220AFF3008010BD2046FCE748
:107B4C00000000000A44914200F1FF3300D170475D
:107B5C0010B511F8014B03F8014F9142F9D110BD4A
:107B6C0002440346934200D1704703F8011BF9E726
:107B7C0038B50D4B1D68AB6B04467BB91820FDF76F
:107B8C00ADFD0A4A0A4BA863C0E90023094B836088
:107B9C000B23838101220023C0E90423AB6B002259
:107BAC001C615A6138BD00BF2CE503200E33CDABF0
:107BBC0034126DE6ECDE050010F8012B11F8013BD8
:107BCC00012A28BF9A42F7D0D01A7047034611F801
:107BDC00012B03F8012B002AF9D17047034613F847
:107BEC00012B002AFBD1181A0138704710B5013946
:107BFC00034632B111F8014F03F8014B013A002C46
:107C0C00F7D11A440021934200D110BD03F8011B97
:107C1C00F9E700002DE9F0473A4E86468C4660465F
:107C2C001CF8014BA55D15F00805F8D12D2C33D1AE
:107C3C009CF800404FF0010800F1020C002B5CD0C6
:107C4C00102B0CD1302C0AD19CF8000000F0DF0076
:107C5C0058284DD19CF8014010230CF1020C08F16E
:107C6C000047013F0026B7FBF3F9304603FB197AB6
:107C7C00A4F13005092D18D82C46A34224DD751C1F
:107C8C0007D081451DD301D1A2451ADB00FB03406F
:107C9C0001261CF8014BEBE72B2C08BF9CF800408D
:107CAC00A84608BF00F1020CC8E7A4F14105192D44
:107CBC0001D8373CE1E7A4F16105192D04D8573CF4
:107CCC00DBE74FF0FF36E4E7731C06D12223CEF836
:107CDC000030384642B9BDE8F087B8F1000F00D04B
:107CEC004042002AF7D00EB10CF1FF311160F2E7DF
:107CFC003024002BB3D10823B1E7302CA4D00A23B5
:107D0C00ADE700BF8E850D0013460A4601460248BA
:107D1C000068FFF77FBF00BF2CE503201D400D005E
:107D2C0059400D0081400D0085400D000000000001
:107D3C0064656661756C7420004D5342004C53426F
:107D4C00003C53504953657474696E6773206465C5
:107D5C006661756C743E003C53504953657474698C
:107D6C006E67732025732575202573204D4F444570
:107D7C0025753E00256900256C6900696E006F75DC
:107D8C00740070776D00647700617700767700255A
:107D9C00322E3766002020006E6F2073616D706C80
:107DAC00650038676D50515959546C35664C757473
:107DBC00793934514A7333574A2D7357756450537C
:107DCC007975007365747570537563636573733D72
:107DDC0025640000000000000000000055410D006B
:107DEC00C5400D00C7400D00626C6E6B696E66007D
:107DFC0076657200312E302E3000682D626561740C
:107E0C0000343500627566662D696E00313032348F
:107E1C0000646576005061727469636C650062750C
:107E2C00696C64004A756C20203920323032312064
:107E3C0030303A34373A3039000000646576696383
:107E4C0065206E6F7420666F756E64000000000014
:107E5C000000000000000000000000008D500D002C
:107E6C00A1400D00A1400D0000000000000000002A
:107E7C00794F0D007B4F0D00AF500D00B94F0D0029
:107E8C00FB4F0D00894F0D00A34F0D00F1510D005C
:107E9C00F1510D00F1510D00F1510D00F1510D009A
:107EAC00F1510D00F1510D00F1510D00F1510D008A
:107EBC00F1510D00F1510D00F1510D00F1510D007A
:107ECC00F1510D00F1510D00F1510D00F1510D006A
:107EDC00F1510D00F1510D00F1510D00F1510D005A
:107EEC00F1510D00F1510D00F1510D00F1510D004A
:107EFC00F1510D00F1510D00F1510D00F1510D003A
:107F0C00F1510D00F1510D00F1510D00F1510D0029
:107F1C00F1510D00F1510D00F1510D00F1510D0019
:107F2C00F1510D00F1510D00F1510D00F1510D0009
:107F3C00F1510D00F1510D00F1510D00F1510D00F9
:107F4C00F1510D00F1510D00F1510D00F1510D00E9
:107F5C00F1510D00F1510D00F1510D00F1510D00D9
:107F6C00F1510D00F1510D00F1510D00F1510D00C9
:107F7C00F1510D00F1510D00F1510D00F1510D00B9
:107F8C00F1510D00F1510D00F1510D00F1510D00A9
:107F9C00F1510D00F1510D00F1510D00F1510D0099
:107FAC00F1510D00F1510D00F1510D00F1510D0089
:107FBC00F1510D00F1510D00F1510D00F1510D0079
:107FCC00F1510D00F1510D00F1510D00F1510D0069
:107FDC00F1510D00F1510D00F1510D00F1510D0059
:107FEC00F1510D00F1510D00F1510D00F1510D0049
:107FFC00F1510D00F1510D00F1510D00F1510D0039
:10800C00F1510D00F1510D00F1510D00F1510D0028
:10801C00F1510D00F1510D00F1510D00F1510D0018
:10802C00F1510D00F1510D00F1510D00F1510D0008
:10803C00F1510D00F1510D00F1510D00F1510D00F8
:10804C00F1510D00F1510D00F1510D00F1510D00E8
:10805C00F1510D00F1510D00F1510D00F1510D00D8
:10806C00F1510D00F1510D00F1510D00F1510D00C8
:10807C00F1510D00F1510D00F1510D00F1510D00B8
:10808C00F1510D00F1510D00F1510D00F3510D00A6
:10809C00F3510D00F3510D00F3510D00F3510D0090
:1080AC00F3510D00F3510D00F3510D00F3510D0080
:1080BC00F3510D00F3510D00F3510D00F3510D0070
:1080CC00F3510D00F3510D00F3510D00F3510D0060
:1080DC00F3510D00F3510D00F3510D00F3510D0050
:1080EC00F3510D00F3510D00F3510D00F3510D0040
:1080FC00F3510D00F3510D00F3510D00F3510D0030
:10810C00F3510D00F3510D00F3510D00F3510D001F
:10811C00F3510D00F3510D00F3510D00F3510D000F
:10812C00F3510D00F3510D00F3510D00F3510D00FF
:10813C00F3510D00F3510D00F3510D00F3510D00EF
:10814C00F3510D00F3510D00F3510D00F3510D00DF
:10815C00F3510D00F3510D00F3510D00F3510D00CF
:10816C00F3510D00F3510D00F3510D00F3510D00BF
:10817C00F3510D00F3510D00F3510D00F3510D00AF
:10818C00F3510D00F3510D00F3510D00F3510D009F
:10819C00F3510D00F3510D00F3510D00F3510D008F
:1081AC00F3510D00F3510D00F3510D00F3510D007F
:1081BC00F3510D00F3510D00F3510D00F3510D006F
:1081CC00F3510D00F3510D00F3510D00F3510D005F
:1081DC00F3510D00F3510D00F3510D00F3510D004F
:1081EC00F3510D00F3510D00F3510D00F3510D003F
:1081FC00F3510D00F3510D00F3510D00F3510D002F
:10820C00F3510D00F3510D00F3510D00F3510D001E
:10821C00F3510D00F3510D00F3510D00F3510D000E
:10822C00F3510D00F3510D00F3510D00F3510D00FE
:10823C00F3510D00F3510D00F3510D00F3510D00EE
:10824C00F3510D00F3510D00F3510D00F3510D00DE
:10825C00F3510D00F3510D00F3510D00F3510D00CE
:10826C00F3510D00F3510D00F3510D00F3510D00BE
:10827C00F3510D00F3510D00F3510D00F3510D00AE
:10828C00F3510D00F3510D00F3510D0000000000EF
:10829C0000000000B7570D00AD570D00A3570D009F
:1082AC0099570D008D570D0081570D00B1690D00C8
:1082BC00B9690D0075570D006D570D0063570D0012
:1082CC0059570D00E9690D000008101820283038A6
:1082DC0000000000000000006170700025592D2581
:1082EC006D2D25645425483A254D3A2553257A00A1
:1082FC0061736374696D650000000000000000008C
:10830C00995F0D00895F0D008B5F0D000000000070
:10831C0000000000BD600D0025610D00FB600D002C
:10832C00915C0D00ED600D00BF600D00CF600D0085
:10833C001F610D00DF600D00B9600D000000000032
:10834C0000000000C9610D0035620D000D620D00CA
:10835C00915C0D00DD610D00F9610D00EB610D000C
:10836C0007620D00CB610D00CF610D000000000015
:10837C0000000000C5620D000F630D00E7620D00E8
:10838C00C7620D00EF620D00F7620D00FF620D0079
:10839C0007630D00776972696E67007265637620FA
:1083AC006572726F72203D20256400000000000091
:1083BC0000000000C3630D00E5630D00FF670D00B6
:1083CC00F3630D00C5630D00000000000000000009
:1083DC0071640D00A5640D0041630D005B630D001D
:1083EC0095660D0007650D00D9640D0085630D00C1
:1083FC009F650D0005680D003B650D0049670D007C
:10840C0087630D00B9630D006D630D00F7630D00FC
:10841C00B9640D00000000000000000053690D005D
:10842C0049690D003F690D0001690D00055E0D00E5
:10843C0033690D00B1690D00B9690D0027690D0094
:10844C001F690D0015690D000B690D00E9690D0020
:10845C00000000000000000071690D007B690D0038
:10846C0085690D008F690D0099690D00A5690D00D6
:10847C00B1690D00B9690D00C1690D00CD690D0020
:10848C00D5690D00DF690D00E9690D0000537431E9
:10849C00395F53705F6D616B655F736861726564A2
:1084AC005F74616700000000F4840D0099840D0076
:1084BC0054850D00C8840D0078850D004E31305F59
:1084CC005F637878616269763131375F5F636C61C5
:1084DC0073735F747970655F696E666F4500000039
:1084EC0000000000BC840D002D6D0D00416D0D00D1
:1084FC00D56E0D00D56E0D00AB6D0D00ED6C0D0045
:10850C00936D0D00556D0D00216D0D0054850D0002
:10851C0024850D00BC840D004E31305F5F6378788C
:10852C00616269763132305F5F73695F636C61736E
:10853C00735F747970655F696E666F45000000004B
:10854C000000000018850D00D56D0D00E96D0D00C3
:10855C00D56E0D00D56E0D00AB6D0D00ED6C0D00E4
:10856C00A96E0D00356E0D00FD6D0D00F4840D002F
:10857C0080850D00537439747970655F696E666F10
:10858C0000002020202020202020202828282828F7
:10859C0020202020202020202020202020202020CF
:1085AC002020881010101010101010101010101027
:1085BC001010040404040404040404041010101027
:1085CC0010101041414141414101010101010101E2
:1085DC000101010101010101010101010110101052
:1085EC0010101042424242424202020202020202B5
:1085FC000202020202020202020202020210101025
:10860C00102000000000000000000000000000002E
:10861C00000000000000000000000000000000004E
:10862C00000000000000000000000000000000003E
:10863C00000000000000000000000000000000002E
:10864C00000000000000000000000000000000001E
:10865C00000000000000000000000000000000000E
:10866C0000000000000000000000000000000000FE
:10867C0000000000000000000000000000000000EE
:10868C0000000000B14E0D00C1570D0055590D00F2
:10869C00695C0D00115E0D00215E0D00495E0D0040
:1086AC005D690D00C96A0D000000000000000000AB
:0486BC0000000000BA
:0886C0009CF1FF7F01000000A6
:0486C80000000000AE
:1086CC0064000000FC820D0030E503200000000077
:1086DC00000000000000000000000000000000008E
:1086EC00000000000000000000000000000000007E
:1086FC00000000000000000000000000000000006E
:10870C00000000000000000000000000000000005D
:10871C00000000000000000000000000000000004D
:0C872C0000000000000000000000000041
:10873800FFFFFFFF00000102030405060708090AFE
:108748000B0C0D0E0F101112131415161718191AF9
:088758001B1C1D1E1F20280040
:048760007856341201
:04000003D000401CCD
:00000001FF
